:020000040800F2
:100000000090002051460008B53E0008B73E0008A9
:1000100000000000000000000000000000000000E0
:10002000000000000000000000000000C5AE000855
:10003000000000000000000031AF000819A800080F
:10004000A146000800000000A1460008B93E0008D3
:10005000C13E0008C33E0008CD3E0008D73E000860
:1000600000000000E93E0008F93E0008113F0008CA
:100070003D3F0008A1460008A1460008000000001E
:10008000A14600084D3F00085D3F00086D3F000895
:10009000A1460008A1460008A14600087D3F0008CF
:1000A000A13F0008C53F0008A1460008D53F000851
:0800B000A1460008A14600086A
:1000C00010B5064C2378002B07D1054B002B02D02E
:1000D000044800E000BF0123237010BD5008002039
:1000E0000000000068DC0008044B10B5002B03D0B2
:1000F0000349044800E000BF10BDC04600000000F6
:100100005408002068DC0008002243088B4274D3A6
:1001100003098B425FD3030A8B4244D3030B8B4208
:1001200028D3030C8B420DD3FF22090212BA030C11
:100130008B4202D31212090265D0030B8B4219D3F2
:1001400000E0090AC30B8B4201D3CB03C01A524112
:10015000830B8B4201D38B03C01A5241430B8B425A
:1001600001D34B03C01A5241030B8B4201D30B0343
:10017000C01A5241C30A8B4201D3CB02C01A52416A
:10018000830A8B4201D38B02C01A5241430A8B422D
:1001900001D34B02C01A5241030A8B4201D30B0216
:1001A000C01A5241CDD2C3098B4201D3CB01C01A30
:1001B000524183098B4201D38B01C01A524143093A
:1001C0008B4201D34B01C01A524103098B4201D328
:1001D0000B01C01A5241C3088B4201D3CB00C01A95
:1001E000524183088B4201D38B00C01A524143080D
:1001F0008B4201D34B00C01A5241411A00D2014632
:10020000524110467047FFE701B5002000F0F0F8BA
:1002100002BDC0460029F7D076E7704703460B437E
:100220007FD4002243088B4274D303098B425FD3EF
:10023000030A8B4244D3030B8B4228D3030C8B421B
:100240000DD3FF22090212BA030C8B4202D3121201
:10025000090265D0030B8B4219D300E0090AC30BD6
:100260008B4201D3CB03C01A5241830B8B4201D383
:100270008B03C01A5241430B8B4201D34B03C01A6C
:100280005241030B8B4201D30B03C01A5241C30AE4
:100290008B4201D3CB02C01A5241830A8B4201D355
:1002A0008B02C01A5241430A8B4201D34B02C01A3F
:1002B0005241030A8B4201D30B02C01A5241CDD2E4
:1002C000C3098B4201D3CB01C01A524183098B422F
:1002D00001D38B01C01A524143098B4201D34B0118
:1002E000C01A524103098B4201D30B01C01A52417B
:1002F000C3088B4201D3CB00C01A524183088B4202
:1003000001D38B00C01A524143088B4201D34B00EA
:10031000C01A5241411A00D201465241104670475C
:100320005DE0CA0F00D04942031000D34042534061
:1003300000229C4603098B422DD3030A8B4212D321
:10034000FC22890112BA030A8B420CD38901921153
:100350008B4208D3890192118B4204D389013AD090
:10036000921100E08909C3098B4201D3CB01C01A65
:10037000524183098B4201D38B01C01A5241430978
:100380008B4201D34B01C01A524103098B4201D366
:100390000B01C01A5241C3088B4201D3CB00C01AD3
:1003A000524183088B4201D38B00C01A5241D9D2EB
:1003B00043088B4201D34B00C01A5241411A00D26C
:1003C0000146634652415B10104601D34042002B68
:1003D00000D54942704763465B1000D3404201B5E7
:1003E000002000F005F802BD0029F8D016E770479C
:1003F0007047C0468446100062468C46190063462A
:1004000000E0C0461FB501F067FE002801D40021BE
:10041000C8421FBD10B501F0B7FD4042013010BD0C
:1004200010B501F059FE002801DB002010BD0120AD
:1004300010BDC04610B501F04FFE002801DD0020C0
:1004400010BD012010BDC04610B501F0DFFD002831
:1004500001DC002010BD012010BDC04610B501F028
:10046000D5FD002801DA002010BD012010BDC046D6
:10047000844608006146FFE71FB500F08BFB0028AB
:1004800001D40021C8421FBD10B500F017FB404247
:10049000013010BD10B500F07DFB002801DB00200D
:1004A00010BD012010BDC04610B500F073FB002840
:1004B00001DD002010BD012010BDC04610B500F0C8
:1004C00023FB002801DC002010BD012010BDC04628
:1004D00010B500F019FB002801DA002010BD012042
:1004E00010BDC0469E2110B5C905041CFFF7F0FFE2
:1004F000002803D1201C00F065FE10BD9E21201CA9
:10050000C90500F0B1FC00F05DFE80231B069C468F
:100510006044F2E770B500220C4B04000D00FFF7B9
:100520009DFF002804D12000290002F037FC70BD97
:10053000064B00222000290002F09EF802F02EFC5B
:1005400080231B069C466044F1E7C0460000E04162
:10055000F0B5C64643025B0A4E0245004F00DA0082
:10056000C40F9C46700A904600B52D0E3F0EC90F71
:10057000B6098C424BD0EA1B002A36DD002F61D031
:10058000FF2D00D1ADE08023DB041E431B2A00DCDD
:10059000D3E001204346181A430100D48CE08001C7
:1005A0008709380002F030FD05388740854200DCBD
:1005B000B6E02D1AB3483840430704D00F23034058
:1005C000042B00D00430430100D478E06A1CFE2DD7
:1005D00065D08001430A9C46D2B26346D0051843D9
:1005E000E407204380BCB846F0BD002A35D07A1B12
:1005F000002D00D0AFE04346002B00D1A7E0531EF2
:10060000012A00D12FE1FF2A69D01A00AAE0E91BD4
:10061000002970DD002F37D0FF2D62D08023DB044E
:100620001E431B2900DCB0E001204044430143D5B8
:100630000135FF2D33D00123934A03404008104079
:100640001843B9E7002E00D183E0511E012A00D1E2
:10065000D8E0FF2A45D00A0098E7FE276A1C174217
:1006600000D086E0002D00D0B7E04346002B00D13B
:10067000F3E00022002EB0D0981B430100D4FAE032
:1006800043460C00F01A97E7002E00D1C8E04A1E3E
:10069000012900D1AEE0FF2923D01100C1E70023DA
:1006A000FF229C4699E7FE216A1C114277D0FF2A5F
:1006B000F5D0150046447008430700D07EE7C30814
:1006C000FF2D0ED05B025B0A9C46EAB285E7002E46
:1006D00007D08022D203134203D0104201D10C0074
:1006E0000300002BDBD08020C00318434002430AE4
:1006F0009C46FF2271E70029D5D07A1B002D60D1DE
:100700004346002B24D0531E012A73D0FF2AE7D082
:100710001A001B2A00DC85E001203D00801985E7D6
:1007200020233A00451B38000135EA405D1BA840F4
:10073000431E9841002510433EE7202330009B1ABA
:1007400031009840D140431E9841084322E70C00F5
:1007500003001500B4E7FF2FC1D080234046DB041F
:10076000184380461B2A51DD01200C003D00301A41
:1007700012E743469F1B7B012BD4002F00D010E7CC
:100780000023002400229C4627E72023320030006B
:10079000CA40591A8840431E9841104345E7002D2E
:1007A0004AD14346002B63D00022002E00D114E72B
:1007B00030004044430100D47EE7324B01351840FD
:1007C0007AE7FF2F8CD080234146DB04194388460B
:1007D0009FE743460C00F71AE3E64246002A00D0A2
:1007E00075E7002E00D07AE78023DB0300249C46C7
:1007F000FF22F2E6300040440125430100D45BE7CC
:10080000022518E743460125981BC5E620234446E8
:100810004046D4409A1A9040431E98412043A4E792
:100820000D004DE7202341464046D1409A1A9040A2
:10083000431E9841084370E74246002A00D14FE723
:10084000002E00D14DE78022D203134200D148E7A9
:10085000104200D045E7030043E7002E90D00C0083
:1008600084460022B9E643460C00F01A013593E6AF
:1008700084460022B1E6002800D01DE700230024B2
:100880009C46AAE6FFFFFFFBFFFFFF7DF0B54F464A
:100890004646D6464502C0B547000C1C6D0A3F0EC1
:1008A000C60F002F00D170E0FF2F00D175E0EB00E4
:1008B0008025ED041D43002399469A467F3F600240
:1008C000430A984663001B0EE40F002B4ED0FF2B0B
:1008D00046D04246D0008022D204024390460022F5
:1008E0007F3B3100FF1A4B466140C9B213430F2BC7
:1008F00000D9B5E06E489B00C3589F460023984638
:100900002600454692465346022B00D189E0032B30
:1009100000D19EE0012B18D03B007F33002B69DD16
:100920006A0704D00F222A40042A00D004352A0185
:1009300003D5604B1D403B008033FE2B00DD70E093
:10094000AD016D0AD8B202E00E0000200025C005FE
:100950002843F6073043E0BCBA46B146A846F0BD8E
:100960004346002B3FD10222FF3F03E04346002BCA
:100970002DD1012231004B466140C9B213430F2BE8
:1009800034D84D489B00C3589F46002D13D10423F3
:100990009946033B00279A4691E7002D05D108238D
:1009A0009946063BFF279A4689E70C239946093B5F
:1009B000FF279A4683E7280002F026FB7627431F8D
:1009C0009D4000237F4299469A463F1A77E740466A
:1009D00002F01AFB4246431F9A4076235B42904640
:1009E0001B1A00227DE7FF2303227AE70E00FF2077
:1009F0000025ACE70120C01A1B28A6DC9E372A0080
:100A0000BD40C2406B1E9D4115436B0704D00F23B0
:100A10002B40042B00D004356B0144D50120002568
:100A200095E7FF20002592E780250026FF20ED03B3
:100A30008DE7002398468020C003054209D0434635
:100A4000034206D1454605436D022600FF206D0A8C
:100A50007DE78020C00305436D02FF206D0A76E725
:100A600042466B015001834219D21B220025013FEF
:100A700001261C006D005B00002C01DB984201D8B0
:100A80001B1A3543013A002AF3D15A1E93411D43E4
:100A90003B007F330E00002B00DD41E7AAE71A225E
:100AA00001251B1AE4E7AD0100206D0A4FE7C0469F
:100AB00080DC0008FFFFFFF7C0DC000870B54200D3
:100AC00045024E024C00C30F6D0A0120120E760A39
:100AD000240EC90FFF2A06D0FF2C03D0A24201D159
:100AE000B54206D070BD002DFCD1FF2CFAD1002EEE
:100AF000F8D18B4206D00120002AF3D12800431EF2
:100B00009841EFE70020EDE770B5420045024E0244
:100B10004C00C30F6D0A120E760A240EC80FFF2A6E
:100B20001BD0FF2C0ED0002A1BD1002C01D1002E8F
:100B30001CD0002D0CD083421CD00221581E08402E
:100B4000013870BD002E22D1002AF4D1002DF2D13F
:100B50000028F6D101204042F3E7002D17D1FF2CE9
:100B6000F0D0002CE7D1002EE5D1E6E70020002DE3
:100B7000E7D0E2E7A24205DCEADBB54202D8E7D3E0
:100B80000020DEE74342584140000138D9E7022007
:100B90004042D6E770B5420045024E024C00C30FFA
:100BA0006D0A120E760A240EC80FFF2A0BD0FF2CF6
:100BB0000DD0002A1FD1002C16D1002E14D10020F8
:100BC000002D10D009E0002D0CD1FF2C13D1002EE8
:100BD00008D1002A08D0834212D00221581E0840B2
:100BE000013800E0022070BD002DF4D10028FAD1B8
:100BF00001204042F7E7002CEDD1002EEBD1ECE7CD
:100C0000A24205DCF2DBB54202D8EFD30020EAE7CE
:100C10004342584140000138E5E7C046F0B54F4631
:100C20004646D64644024500C0B5640A0F1C2D0E48
:100C3000C60F002D00D18DE0FF2D00D192E00023E2
:100C4000802099469A46E400C00404437F3D780220
:100C5000430A98467B001B0EFF0F002B00D170E06B
:100C6000FF2B00D186E04246D00080227F3BED186A
:100C70000023D204024390469C4631004B46794003
:100C8000681C0F2B1CD8764A9B00D3589F4639000E
:100C90004446E2465346022B0FD0032B00D1D7E047
:100CA000012B37D100200024C0052043C907084389
:100CB000E0BCBA46B146A846F0BDFF200024F3E7E9
:100CC000260C2404220C44462404240C434627000A
:100CD0001B0C574374435A435E4312193B0C9B1839
:100CE0009C4203D980225202944666443F041A046F
:100CF0003F0CD2199401671EBC411B0C920E9B192C
:100D000014439B011C431B0100D49BE00123620898
:100D10001C40144302007F32002A64DD630704D0C4
:100D20000F232340042B00D00434230103D50200F9
:100D30004C4B80321C40FE2ABFDCA401640AD0B2B6
:100D4000B2E74346002B3DD14A4601331A43914650
:100D50009C4692E7002C29D104239946033B0025A9
:100D60009A4674E7002C1BD108239946063BFF25C1
:100D70009A466CE74346FF35002B0BD102234A46C7
:100D80001A4391469C4678E753463100022B00D027
:100D900083E792E703234A461A4391469C466CE751
:100DA0000C239946093BFF259A4650E7200002F0A4
:100DB0002BF97625431F9C4000236D4299469A46A5
:100DC0002D1A44E7404602F01FF94246431F9A405D
:100DD00000232D1A90469C46763D4EE78024002144
:100DE000FF20E40360E701239B1A1B2B00DD59E77A
:100DF00022009E30DA4084401300621E94411C435E
:100E0000630704D00F232340042B00D00434630174
:100E10001AD50120002447E78020C003044209D0EE
:100E20004346034206D14446044364023900FF208E
:100E3000640A39E78020C003044364023100FF20C4
:100E4000640A31E7280065E7A4010020640A2BE763
:100E50008020C00304436402FF20640A24E7C046E4
:100E600000DD0008FFFFFFF7F8B5CE464746430216
:100E70005B0A4E02DA009446720A914645004A0027
:100E800080B52D0E1F00C40F120EC90FB609FF2A20
:100E90005BD0012041408C4239D0A81A00285ADD8D
:100EA000002A6AD0FF2D00D1D9E08022D204164357
:100EB0001B2800DCE9E001206346181A430100D436
:100EC000B4E080018709380002F09EF805388740B9
:100ED000854200DCCCE02D1AB5483840430704D0E9
:100EE0000F230340042B00D00430430100D4A0E0C2
:100EF0006A1CFE2D00D18DE08001470AD2B2D005D8
:100F00003843E4072043C0BCB946B046F8BDA81A30
:100F10008046002845DD002A70D0FF2D00D19EE0DC
:100F20008023DB041E4343461B2B00DCD2E0012060
:100F3000604443017AD50135FF2D6BD001239D4AD2
:100F40000340400810401843C8E7002E20D08C42D0
:100F500023D02800FF38002839D0571B002D00D09F
:100F60009DE06346002B00D1DBE07B1E012F00D10A
:100F70000DE1FF2F71D01F0098E0002E00D1A7E0F7
:100F8000421E012800D1E6E0FF2868D010008FE75C
:100F900001204140A14200D07FE7FF20404280462F
:100FA000A8444046002838D0511B002D00D1AEE0A7
:100FB000FF2A00D1DFE080236046DB04184384462B
:100FC0001B2900DCD9E0012015008019B1E7FE20C3
:100FD0006A1C104271D1002D00D0A6E06346002BA0
:100FE00000D1D9E00022002E00D188E7981B4301F0
:100FF00000D4E1E063460C00F01A6FE7002E00D148
:10100000B7E00200013A012800D19CE0FF2826D079
:10101000904688E7FF22002771E7FE206A1C1042F5
:1010200064D0FF2AF6D0150066447008430700D04C
:1010300056E7C308FF2D12D05B025F0AEAB25EE7F3
:101040006246002A00D196E0002E08D08022D2030A
:10105000134204D04846104201D10C004B46002BED
:10106000D8D08027FF031F437F02FF227F0A46E775
:1010700020233A00451B38000135EA405D1BA8409B
:10108000431E98410025104328E720231B1A3200F5
:101090009E40C2403000431E984110430CE7FF2A97
:1010A000DBD080236046DB04184384461B2F56DDCB
:1010B00001200C001500301A00E763469F1B7B01DE
:1010C0003DD4002F00D0FEE600240022002716E7C2
:1010D0000500AFE7320043464146DA4020235B1A61
:1010E0009E403000431E9841104321E7002DA7D1B8
:1010F0006346002B59D00022002E00D1FFE63000BD
:101100006044430192D52A4B013518408EE763466F
:10111000002B47D04B1E012915D0FF292BD01900D9
:101120004EE70C004B463D0084E76246002A8BD117
:10113000002E92D180270024FF22FF03DFE66346C2
:101140000C00F71ABFE6300060440125430100D4CB
:101150006CE70225F2E663460125981BAEE62023E4
:1011600064466046FC40DF1BB840431E9841204364
:101170009FE705005EE74B4671E720236546604622
:10118000CD40591A8840431E984128431CE76346C6
:101190000C000125F01A91E6002E95D00C004F4668
:1011A0000022ACE64B460D0044E74F460022A6E67F
:1011B000FFFFFFFBFFFFFF7D002800D036E7002484
:1011C00000279CE641024200C30F490A0020120E8C
:1011D0007E2A03DD9D2A02DD094A98187047802087
:1011E00000040143952A07DC9620821AD140484228
:1011F000002BF3D10800F1E7963A9140F7E7C0469B
:10120000FFFFFF7FF8B5002813D0C317C6185E4054
:10121000C40F300001F0F8FE9E2305001B1A962B28
:101220000FDC082801DD083DAE407602760AD8B210
:1012300002E0002400200026C0053043E4072043DC
:10124000F8BD992B0CDD05223100121AD1400A009D
:10125000010030001B318840411E884102431600C6
:10126000052D12DC31000D4F3940720709D00F20D7
:101270003040042805D004314A0102D59F2339406B
:101280005B1B89014E0AD8B2D6E76A1F964031002F
:10129000024F39407207F4D0E9E7C046FFFFFFFB79
:1012A00070B5051E0ED001F0AFFE9E2304001B1A80
:1012B000962B0CDC082801DD083CA5406D026D0A68
:1012C000D8B201E000200025C005284370BD992B4D
:1012D00009DD020029001B3291404A1E914105227E
:1012E000121AD5400D43052C12DC29000C4E31405A
:1012F0006A0709D00F202840042805D004314A018C
:1013000002D59F2331401B1B89014D0AD8B2DBE770
:10131000621F95402900024E31406A07F4D0E9E788
:10132000FFFFFFFBF0B54F464646D6460D000400D2
:10133000C0B51F0011002803620F400A10437A0055
:10134000520DE3003C039146640AFA0F4F0F6E0002
:1013500027439246B846760DED0FC900954200D15D
:1013600099E04C46341BA446002C00DC7CE04A4645
:10137000002A00D1B8E0C54A964200D11CE1802283
:101380003C0012041443A0466246382A00DD61E1A5
:101390001F2A00DDCCE164462022121B4446944003
:1013A0000F00A14664469140E7404C464A1E9141D9
:1013B0003C43424621436446E240801A5C1AA34201
:1013C0009B415F42C71B3B0200D4D0E07F027F0AF3
:1013D000002F00D1FFE0380001F016FE01000839AF
:1013E000202322005B1A8F40DA408C401743B14221
:1013F00000DAFFE0891B4B1C1F2B00DDA8E0202238
:101400003900D21A200094409140D840621E944185
:10141000DF40002601430C43630709D00F2323401C
:10142000042B05D0231DA342A44164423F191C0094
:101430003B0200D49EE0954B01369E4200D1B7E0BE
:10144000934AE40817407B0771057F0223433F0B53
:101450004A0D12053A43ED072A4318001100E0BC7B
:10146000BA46B146A846F0BD002C4BD04C46A41B52
:10147000A446002E00D023E104001C4300D1AFE1BC
:101480006246541E012A00D115E2804DAC4500D1C0
:10149000C8E1A4461BE14A46B21A9446002A00DC81
:1014A000ACE04A46002A43D0784A964200D1AFE1E8
:1014B00080223C0012041443A0466246382A67DCAE
:1014C0001F2A00DC5FE14746203AD7406246202AC7
:1014D00005D064464022121B4446944021434A1ED4
:1014E00091410C003C4357E03A000A4300D105E12A
:1014F0002200013A012C00D182E1644CA4455BD06A
:10150000944641E7634C771C274200D0C4E00400B6
:101510001C43002E00D069E1002C00D1BFE14446FD
:101520000C4300D0D0E14207DB081343C00829E098
:101530003A000A4300D170E162466446013A012C48
:1015400000D1E0E0514CA44500D161E19446B4E7FC
:101550003A001F39CA401100202B03D04022D31A71
:101560009F403C43631E9C41002700260C436307B9
:1015700000D053E7B446E4087B072343F808434A06
:1015800094451DD06246070352053F0B520D60E79C
:1015900044460C43621E9441E4189C429B415F42C6
:1015A0003F183B02E3D5394B01369E4200D0B5E0EF
:1015B0003200002700234CE74207DB081343C00832
:1015C0001A00024300D1E1E180273F0307433F03B4
:1015D0002E4A3F0B3DE7200001F016FD01001831B7
:1015E0001F2900DCFCE60838844027000024B142B3
:1015F00000DBFFE6264A761A17400DE7002A2FD0B7
:101600004A46921B9446002E00D1ADE01F4A9145F8
:1016100000D10FE18022120410436246382A00DD17
:101620000FE11F2A00DD80E1644620221E00121B0C
:101630006746040093409440FE405A1E9341F84090
:1016400034431C43804464188C42BF417F424E4661
:101650004744A6E742460A4311004A1E9141ADE6BF
:101660000C4C721C224200D0A1E002001A43002E52
:1016700000D0FAE0002A00D145E13A000A4300D048
:1016800046E14207DB081343C0087BE7FF07000081
:10169000FFFF7FFFFE07000047465C1AC21BA34204
:1016A000BF417F42B94617004A46BF1A3A0200D5E9
:1016B0008DE023003B4300D08AE60020002561E74F
:1016C000B44CA14500D1ADE08024240420436446FD
:1016D000382C3DDC62461F2C00DDB7E020251E00C3
:1016E0002D1B0400AB40AC40D640D04042465D1EAE
:1016F000AB413443121A904623432CE04207DB08E7
:101700001343C0083BE75C189C429B4140445B424A
:10171000C71801263B0200D429E702269E4A630827
:101720001740012214401C43FB071C437F0873E64B
:101730004446203AD4406246202A05D067464022DB
:10174000D21B4746974039434A1E9141214335E613
:101750000343581E8341CC1AA142BF4143467F42F6
:1017600055464E46DF1B2EE602001A4300D1BDE06F
:1017700062466446013A012C00D1E5E0854CA4455F
:1017800058D0944649E764462022121B44469440B0
:101790000F00A14664469140E7404C464A1E9141E5
:1017A0003C4342460C436146CA408018F4E6794CFB
:1017B000A24200D1FDE6591899429B4140445F4244
:1017C000C719FC07490816000C437F08CFE6CC1A5E
:1017D000A142BF4143467F42181A5546C71BF7E551
:1017E000C9087B0755460B43F808C8E6002C00D013
:1017F00081E043460B4315D1802000250003E3E63A
:101800005C1AA3429B41C71B5B420126FF1ADAE523
:101810004207DB081343C008D2E64207DB08134344
:10182000C008ACE643464246C9085B0755460B4331
:10183000D008C5E6434642465B07C9080B43D008BB
:10184000BEE603431C00631E9C41FCE60200203CF4
:10185000E24014006246202A03D04025AD1AA84079
:101860000343581E8341234375E7002AE2D03A0020
:101870000A43CDD04207DB0813438022C00812037D
:10188000104206D0FC08144203D12000CB087A078E
:1018900013435A0FDB005207DB08134390E643461D
:1018A0000B4300D109E743464246C9085B0755464A
:1018B0000B43D00866E6CC1AA14289413F1A49423F
:1018C000554601267F1A7EE542465C1A871AA342D6
:1018D00092415242BF1A3A023DD5CC1AA1428941E7
:1018E000434649421F1A55467F1A95E57B07C908AA
:1018F0000B43F80843E64446DB080C4330D142076B
:101900001343C0085CE67B07C9080B43F80839E6B7
:101910005C189C429B4140445B42C7183B0200D488
:1019200025E61D4B01261F4021E60400203AD44045
:101930006246202A04D040226646921B9040034310
:101940005A1E93411C437EE65C188C4289414044F8
:1019500049424718DDE623003B4300D1ADE606E6E9
:10196000440723438024C0082403204208D0424671
:10197000D608264204D155463000CB0851070B4308
:101980005A0FDB00DB085207134319E60023014A14
:101990001F005EE5FF070000FFFF7FFFF0B5574621
:1019A0004E464546DE46E0B5814605000C0348003C
:1019B00092461F0085B0240B400DCE0F002800D1A9
:1019C00056E1D44B984200D172E16B0FE4001C4306
:1019D00080231B0423439846CF4BED009B460023F6
:1019E0009946834400933C037B005046240B5B0DD7
:1019F000FF0F002B00D11FE1C64A934200D162E1E4
:101A0000C549420F8C46E400594614438022634482
:101A10001204CB1A14439B46C200002033007B40C3
:101A20009A464B460F2B27D8BC499B00CB589F4664
:101A3000B246009B022B16D0032B00D18EE2012B65
:101A400000D0D9E000230024002552461B05234383
:101A5000D20713432800190005B0F0BCBB46B246BC
:101A6000A946A046F0BD00240025AA4BEDE7BA46E2
:101A7000A04615000090DCE7444500D2C7E100D144
:101A8000C2E101235B429C462E0040460025E34410
:101A90002302140E1C431B0C994623041F0C120234
:101AA000494600920197FEF7B5FB02007A430B040A
:101AB000310C804619438A4207D901235B429C4678
:101AC0000919E0448C4200D807E2881A4946FEF71B
:101AD000A1FB09048C4631046646019A090C424375
:101AE000030031438A4204D90919013B8C4200D8D2
:101AF000EDE1881A424612041A4390464146009B83
:101B00000E041B0C1F000293009B360C1B04190CC7
:101B10000B007343120C7E43039151437A431F0C15
:101B2000BC4676186644B14203D9802149028C46EE
:101B30006244310C8A1831041E04360C8E1990420E
:101B400002D312D1B54210D24346591E009B9C4687
:101B500065441F009D429B415B421B19C018844293
:101B600000D2A0E100D19BE18846AE1BB542AD4159
:101B7000801A6D42401B844200D1D5E14946FEF7F0
:101B800049FB019A0B044243310C050019438A4278
:101B900000D96CE1881A4946FEF73CFB019A3604ED
:101BA00042430904360C03000E43B24200D953E10C
:101BB0000398B61A02002D041D43029F2B041B0C30
:101BC0005A437B439C46290C4843130C844463448A
:101BD0007943984203D98020400284466144180C1E
:101BE00012041B04120C41189B188E4200D2FFE015
:101BF00000D1FAE001231D43494A5A44002A00DC7F
:101C0000AAE06B0700D03DE1ED084346DB0106D5B5
:101C10004246444B1A4090468022D2005A44424BDE
:101C20009A4200DD1FE743465B071D4343465205CA
:101C30005C02240B530D08E75246224300D17BE09F
:101C4000002C00D1FAE0200001F0DEF902000B3A8E
:101C50001D2301009B1A52460839DA408C40144378
:101C600052468A40314B58449B4683440020D5E677
:101C70004B462343984644D0002C00D1CEE02000B0
:101C800001F0C2F9010002000B391D235B1A49461D
:101C90001000D940083884400B004D462343984635
:101CA00085402348831A9B460023994600939AE671
:101CB0004B46234398461DD108239946063B0025F1
:101CC000834600938FE65246224309D102234946B8
:101CD0001943184B89469C4600240220E3449DE6A4
:101CE00003234A461A43134B91469C46524603200F
:101CF000E34493E60C239946093BA04683460093B0
:101D000071E60423994600239B4601330025009386
:101D100069E6C046FF07000001FCFFFF40DD000848
:101D2000FF030000FFFFFFFEFE070000F3030000BB
:101D30000DFCFFFF01F8FFFF4946012319438946C7
:101D4000002401206AE6002380249A4600258A4B5D
:101D500024037AE601256D4201239B1A382B00DD0E
:101D600070E61F2B00DCBFE01F2149428A1A414662
:101D7000D1400A00202B04D04146804B5B4499405F
:101D80000D436B1E9D4107232A431D00002415406F
:101D9000134200D1D4E00F2100231140042900D1C7
:101DA000CBE0111D9142924152429B180A00190248
:101DB00000D4C2E001230024002546E680234146EA
:101DC0001B03194208D01C4206D11C432403BA4607
:101DD0001500694B240B38E68024434624031C433A
:101DE0002403B246644B240B2FE6002B00D103E7FB
:101DF000A619681EA64200D28DE08E4200D2A3E052
:101E000000D1B3E00500F5E6AA4200D939E6434621
:101E1000DE0758086B081E43ED0739E6484601F017
:101E2000F3F801000200153120321C2900DC2CE7F8
:101E30004B46083883400025984632E701F0E4F825
:101E400003001A00153220301C2A00DC00E754463B
:101E5000083B00229C4005E73619013BB44200D9FB
:101E6000A6E6B24200D8A3E6831E3619A0E60919F9
:101E7000013D8C4200D98DE68A4200D88AE6851E53
:101E8000091987E60F232B40042B00D1BCE605235C
:101E90005B42AB429B4104355B42ED089844B4E69B
:101EA000AF4200D960E6824204D800D05CE6AE4280
:101EB00000D859E602235B429C46009BE0449C46C6
:101EC00065449D429B415B421B19C0184DE68A4206
:101ED00000D80EE6831E09190BE68A4200D8F4E505
:101EE000831E98460919F0E52549280059448D407C
:101EF00042468A40691E8D414146D840D94002433E
:101F00002A430B00510700D151E70F21114004294A
:101F100000D046E74BE705008E4200D06AE6009A03
:101F2000934200D066E667E6164A5A44002A00DC6F
:101F300010E701230025984467E65D075B021C0B50
:101F4000D2080023154380E50098023D42008242FA
:101F5000BF417F423C1936190092DDE78024434699
:101F600024031C432403044B240B6EE5009A9A427D
:101F7000EAD30500D3E7C046FF0700003E04000097
:101F80001E040000FF030000F0B54E464546DE4645
:101F900057469046E0B517001A03120B0500844619
:101FA00019480E034C0091465A00DB0F9B46360B36
:101FB000640DC90F520D844219D0824210D0012005
:101FC00094420ED14E450CD10120C44509D159454A
:101FD00017D0002C05D130002843431E984100E063
:101FE0000120F0BCBB46B246A946A046F0BD330076
:101FF00001202B43F5D1A242F3D14B463B43F0D114
:10200000E2E70020EDE7C046FF070000F0B54746D5
:10201000CE460400180016001B031B0B2D4D4A0072
:10202000994680B543000F03A446B0463F0B520DBE
:10203000C90F5B0DC00FAA4221D0AB4213D0002ABA
:1020400022D13C43002B02D14D462E4322D0002CFE
:1020500010D0814222D00220013908400138C0BC92
:10206000B946B046F0BD4D462E4329D1002AF0D1E5
:102070003C43EED10028F2D101204042EFE73D0081
:1020800025431DD19342EED0002BE2D14C4626438E
:10209000DFD1E0E70020002CE1D0DCE79A420ADC47
:1020A000E8DB4F45D7D80ED000204F45D7D20029C6
:1020B000E2D00800D3E74342584140000138CEE760
:1020C00002204042CBE7C445C5D80020C445C6D253
:1020D000EDE7C046FF070000F0B54746CE460400D6
:1020E000180016001B031B0B2C4D4A00994680B5A7
:1020F00043000F03A446B0463F0B520DC90F5B0DC2
:10210000C00FAA420DD0AB4210D0002A27D13C43C9
:10211000002B11D14D462E430ED10020002C15D09E
:102120000EE03D00254310D1934218D14D462E4379
:102130000BD1002A02D13C43002C0BD0814214D099
:10214000022001390840013800E00220C0BCB94635
:10215000B046F0BD0028F9D101204042F6E7002B3F
:10216000ECD14C462643E9D1EAE79A4204DD4342EA
:10217000584140000138E9E79A42EBDB4F45DFD890
:1021800006D000204F45E1D20029E5D00800DDE768
:10219000C445D5D80020C445D8D2F5E7FF070000D4
:1021A000F0B557464E464546DE46E0B598460C0328
:1021B0004B000600924687B0240B5B0DCF0F002B1F
:1021C00000D15CE1D94A934200D175E1420FE400AD
:1021D0001443802212041443D54AC5009446634434
:1021E0000093002399469B46434642461E03D20F66
:1021F0005B0050469046360B5B0D00D120E1CB4A88
:10220000934200D162E1CA49420F8C46009963446F
:10221000F6008C46164380229C4412046346164303
:10222000C200002000930099434601318C46494684
:102230007B4001930F2926D8BE4B890059588F4601
:10224000434601933400150083465B46022B16D0AB
:10225000032B00D103E2012B00D0CDE000220024AB
:102260000025019B12052243DB071A4328001100B9
:1022700007B0F0BCBB46B246A946A046F0BD00245C
:102280000025AA4AEDE7280C2D042D0C2B00110C7B
:102290001204120C5343984613002F0043439946EF
:1022A0004F434F44BB4647460B003F0CBA4643439F
:1022B000DA440293D14504D980277F02B9464B44C2
:1022C000029353461B0C9B4653461F0443461B0474
:1022D0001B0C98463B0043440493330C3604360CE5
:1022E0009846330043439946434643432F009A465A
:1022F000434677435D43380C4D444519A94503D9FE
:1023000080235B029946CA443F04280C3F0C2D04ED
:10231000ED19270C2404240C0300200050437A43B9
:1023200091463A0053440593030C9A464A4361434D
:1023300049445144AB44894503D980235B02994603
:102340004A4400040B0C000C0904091820009946AB
:10235000434670435C437E435F43030C9846A41995
:1023600044444A440397A64204D980235B0298461A
:10237000474403972304029E9A46059B5E44984671
:10238000AE42AD4176188E4289410004000C5044A3
:1023900040446D424719B846934649428946C34472
:1023A000D94498428041A845AD4193459241894521
:1023B00089416D4240422843240C524249420A431B
:1023C000039B00198018C7184B46DC0D049B75024F
:1023D0001D436A1E95414B46F60D7F0235435A0256
:1023E0003C431543FB0100D41CE101216A080D4068
:1023F0001543E207154364084F496144002900DC96
:10240000B0E06B0709D00F222A40042A05D02A1D0C
:10241000AA42AD416D4264191500E30104D5802143
:10242000464AC90014406144454A914200DD26E70E
:102430006207ED08640249051543240B4A0D10E7B5
:102440005246324300D17FE0002E00D1DCE0300064
:1024500000F0DAFD02000B3A1D2301009B1A5246E0
:102460000839DA408E40164352468A40009B35496F
:10247000181A03008C46634400200093D3E625001D
:1024800005434AD0002C00D1B0E0200000F0BCFD94
:10249000010002000B391D2310005B1A31003500CA
:1024A00008388440D94085400C432648831A00935D
:1024B000002399469B4697E60500254326D108222E
:1024C00000930223002491469B468DE65246009BD2
:1024D000324310D1154900268C4663444946009387
:1024E00002231943894602209DE65B460197022B91
:1024F00000D0ADE6C3E60D4A0320944663444A4645
:10250000009303231A43914652468CE60C22009313
:102510000323050091469B4666E604239946002363
:102520000093013300249B465EE6C046FF0700008F
:1025300001FCFFFF80DD0008FF030000FFFFFFFE3E
:10254000FE0700000DFCFFFF4946012319438946A1
:102550000026012067E6002380240025434A0193DA
:1025600024037EE60120401A382800DD76E61F2885
:102570005BDD1F2223005242511ACB401900202854
:1025800003D03B4A6244944025436A1E95412A0089
:102590000A4307210D000024154011425BD00F2192
:1025A00000241140042953D0111D914292415242FE
:1025B000A4180A0023024BD501220024002550E66E
:1025C00080231B031C4209D01E4207D133431C0346
:1025D00043461500240B254A019342E6802212034C
:1025E00014432403214A240B01973AE600F00CFD22
:1025F00001000200153120321C2900DC4BE73400B9
:1026000008380025844050E700F0FEFC03001A0063
:10261000153220301C2A00DC1EE75646083B0022FB
:102620009E4023E7009B9C46E6E612492200614457
:102630002E008D408A40C640691E8D4132432A4398
:10264000C4405307B6D00F2111400429ACD1B1E7E3
:1026500065076402240BD2081543002201E680229C
:10266000120314432403014A240BFAE5FF07000078
:102670003E0400001E040000F8B557464E4645468D
:10268000DE46E0B51E0017004A000B03520D5B0A40
:102690009046420F1A43CD0FCD4C3103C3009446F0
:1026A00070007A0F490AFF009A46B946400DF60FAE
:1026B0001143A04200D1B1E001225640B346B542D9
:1026C00000D188E04246121A002A00DCAEE0002861
:1026D00000D1C1E0BE48804500D151E18020000416
:1026E0000143382A00DD7BE11F2A00DDEEE12020D6
:1026F0003E00801A0C00D640D1408740624684409C
:10270000521A781E8741944634432743DC1BA34268
:102710009B4162465B42D31A99464B461B0200D44A
:1027200018E14B465802430A99464B46002B00D10C
:1027300037E1484600F068FC0100083920232200F8
:1027400048465B1ADA4088408C404346104388452F
:1027500000DD36E1C91A4B1C1F2B00DDEAE0202208
:102760002600D21A01009440DE40D8400023914058
:10277000621E94418146984631430C43630709D059
:102780000F232340042B05D0231DA342A441644200
:10279000A1441C004B461B0200D4DEE041468C4B9A
:1027A0000131994200D1E7E04B468A48E4080340F2
:1027B000180049055B07400223434A0D040B12052C
:1027C000ED0722432A4318001100F0BCBB46B24675
:1027D000A946A046F8BD4246121A002A52DD00283A
:1027E00000D19CE0A04500D1CAE080200004014354
:1027F000382A00DD49E11F2A00DC97E110000E00B5
:102800002038C640202A04D04020821A91400F432D
:10281000B9464C46621E944134433AE10A003A43B9
:1028200028D0B346B5422BD06B4A4244002A5DD033
:1028300042464446821A002C00D0F5E065461D430E
:1028400000D19CE1551E012A00D1FBE1604CA2425F
:1028500000D1BDE12A00F0E00800384300D1C3E018
:10286000501E012A00D1A8E1594CA24200D187E0B4
:10287000020036E701225640B346B54200D021E7B8
:10288000554A4244002A00D1B5E042464446821AE5
:10289000002C00D138E14E4EB04200D1DEE180265E
:1028A000644636043443A446382A00DD96E11F2AE4
:1028B00000DD24E22026B41AA24664465646B440FF
:1028C000A1461C004E46D440264334005646B34031
:1028D0005E1EB3411C436346D340C918E419BC4291
:1028E000BF417F42B94680468944D8E040463B4CD0
:1028F0000130204200D0B4E04046002800D044E13E
:102900006046184300D190E10800384300D0AAE1A6
:102910006146DB0849070B436146CC0827E0080005
:10292000384361D0501E012A00D139E1A24227D09C
:1029300002005DE702001F39CA401100202B03D0BE
:102940004022D31A98400443631E9C4100239946B9
:1029500098460C43630700D012E74B464A46E4080A
:102960005B072343D408424619498A420ED0240308
:102970005205240B520D22E70A00002400231EE713
:10298000DB086246520713436246D4081A0022430A
:1029900000D1FCE180221203144324030C4A240BCF
:1029A0000DE7200000F030FB010018311F2900DC8A
:1029B000C4E608388440434620000024884500DCF3
:1029C000C8E6044A5B1A104098468146D6E6C046DF
:1029D000FF070000FFFF7FFF01F8FFFFFE07000079
:1029E0000F437A1E974191E66146DB0849070B4386
:1029F0006146CC08B8E74046D34C0130204200D0B5
:102A0000A2E04046002800D001E16046184300D112
:102A10005EE10800384300D05FE16146DB0849070A
:102A20000B436146CC08A2E7C84DA84200D1CFE0D5
:102A3000802564462D042C43A446382A56DC1F2AE0
:102A400000DDD1E020251E00AD1A6446AB40AC404D
:102A5000D6405D1EAB41344323436446D440091B3A
:102A600049E06046DC1B461AA34280414042814651
:102A700030004E46801B8146000276D44B462343ED
:102A800000D052E60024002571E739430C00621E95
:102A90009441E4189C429B415B42634499464B46F7
:102AA0001B0200D456E701239C46A84BE0449845FE
:102AB00038D04B46A6480122034018006308144052
:102AC0001C43C3071C434308994657E610000E00F9
:102AD0002038C640202A04D04020821A91400F435B
:102AE000B9464F467A1E974137430FE662461A436E
:102AF00013005A1E9341FC1AA742BF417F42CB1BD1
:102B000099465D46804608E666461E4300D1BEE013
:102B1000561E012A00D109E18C4CA24200D119E1D4
:102B20003200C1E642460024002348E620200C0083
:102B3000801A3E0087408440D640781E8741D140AD
:102B400034433C438C44A4E7804A904200D1E9E0FE
:102B5000DF199F429B4161445B42C918CC077F0843
:102B60004B08994680463C43F4E6FC1AA742BF4115
:102B700063467F42C91ACB1B99465D46D5E5FF08DF
:102B80004B075D463B43CC08EEE662461A4300D055
:102B900082E00B003B431BD1802400252403F9E68F
:102BA000DC199C429B41614489465B4299444B46F7
:102BB0001B0244D401239846CCE6DC1B6246A342A8
:102BC0009B41511A5B42CB1A994601239846A4E5D2
:102BD000FF084B075D463B43CC08D7E662461A43E5
:102BE0001400631E9C4179E615006446203DEC40CC
:102BF000A046202A05D040256446AA1A94402343C3
:102C00009A465446631E9C414346234373E76246FB
:102C10001A4323D00A003A4300D0A0E06246DB0802
:102C2000520713436246D408B0E60B003B4300D181
:102C300028E7FF084B075D463B43CC0897E6022395
:102C4000984636E7FC1AA742BF4163467F42C91A3D
:102C5000CB1B994601235D4698465EE54B07FF086E
:102C60003B43CC0892E6DC1B6046A342B641401AC7
:102C70007642801B8146000260D5FC1AA742BF4104
:102C800063467F42C91ACB1B99465D4676E5FF082D
:102C90004B073B43CC0867E60A00DB083A4300D108
:102CA0006FE66246520713436246D408802212033D
:102CB000144207D0C808104204D15D460400FB0846
:102CC00049070B435A0FDB00DB08520713435DE64D
:102CD0004B07FF083B43CC0849E6DC199C429B416B
:102CE000614489465B4299444B461B0200D431E65D
:102CF0004A46174B1A400123914698462AE6160089
:102D00006446203EF440A046202A05D04026644672
:102D1000B21A944023439A465446631E9C4143464C
:102D20001C43DBE502000024002348E5DC19BC421B
:102D3000BF41614489467F42B94438E74B4623434B
:102D400000D19FE606E6C046FE070000FF07000030
:102D5000FFFF7FFFFF084B073B43CC0816E66246A8
:102D6000DB08520713436246D40880221203144240
:102D700007D0C808104204D15D460400FB0849078B
:102D80000B435A0FDB005207DB081343FEE5002319
:102D9000014A1C0013E5C046FF0700000A0030B5D9
:102DA000134C530009030500090B00205B0DD20FE3
:102DB000A34204DD0F48834202DD0F4BD01830BD23
:102DC0008020400301430D48C01A1F2808DD0C482D
:102DD000C31AD9400B005842002AF0D11800EEE780
:102DE000084CC540A446634499400B002B43F2E7CE
:102DF000FE0300001D040000FFFFFF7F33040000FE
:102E000013040000EDFBFFFF70B5002816D0C317B8
:102E1000C5185D40C40F280000F0F6F8114A121AD8
:102E20000A2816DC03002E0015339E400B23181AC7
:102E3000C54052052D032D0B530D03E00024002344
:102E4000002500261B052B43E4072343300019000F
:102E500070BD0B38854052052D0300262D0B530DF8
:102E6000F0E7C0461E04000070B543004602C40FE0
:102E7000FE201B0E591C750A08420CD0E02292005D
:102E800094466D07360B63441B053343E407234325
:102E90002800190070BD002B14D1002D1BD0280074
:102EA00000F0B2F80A281CDC0B232E001B1ADE40AF
:102EB000030015339D400E4A3603121A5205360B95
:102EC000530DE1E7002D09D08022360B1203094B88
:102ED0006D071643D8E700230026D5E70026054BEB
:102EE000D2E703000B3B9D402E000025E3E7C046E0
:102EF00089030000FF07000002004B00F0B55B0DE6
:102F00000C033D4E640A400F5F1CC90F0443D500FB
:102F100037420AD039481E18FE2E16DDFF20002445
:102F2000C0052043C9070843F0BD002B06D12C4340
:102F300026D005229201540AD8B2F1E72543EDD0FC
:102F40008020C0030443FF20EAE7002E1BDD92012E
:102F5000531E9A41E4006D0F22432A43530748D081
:102F60000F231340042B00D004328023DB041340D2
:102F70003FD0701CFE2ED1D09201540AC0B2CFE7D0
:102F800000200024CCE73200173222DB802000042E
:102F900020431E24A41B1F2C1DDD02225242961B1F
:102FA0000200F2401600202C04D0154A94466344D7
:102FB000984005432A00531E9A4132430026530786
:102FC000CED180241300E404012023402242D3D137
:102FD000B0E70023ADE70B4A94462A00E240140014
:102FE0002A0063449A409840551EAA410243224356
:102FF000E4E733009EE7C046FE07000080FCFFFFC9
:10300000A2FCFFFF82FCFFFF1C2101231B0498424E
:1030100001D3000C10391B0A984201D3000A083969
:103020001B09984201D30009043902A2105C401820
:103030007047C046040302020101010100000000C4
:103040000000000000B585B00C22002101A809F0A5
:103050008FFB2A482A4B03608022920342600023A0
:103060008360C36002610822426103764376073AB7
:1030700082760321C16143628362293142548021F7
:1030800049010163436383633C2142541B32026460
:10309000643242648364C36401F036FB002820D1AB
:1030A0000123019300230293039301A9134801F024
:1030B000FDFC002818D1134B01930423029301A9AE
:1030C0000E4801F0F3FC002811D10F4B01930823A7
:1030D000029301A9094801F0E9FC00280AD105B0D2
:1030E00000BD00F091FDDBE700F08EFDE3E700F0AE
:1030F0008BFDEAE700F088FDF1E7C0466C08002090
:1031000000240140040000080800000C30B58FB016
:1031100004001422002109A809F02AFB1C22002126
:1031200002A809F025FB294B22689A4201D00FB072
:1031300030BD8023DB01029302A803F039FE002892
:103140003DD1234B196C80204003014319641A6C54
:1031500002400092009A596B0122114359635B6B44
:103160001A400192019B0D2309930A3B0A93002503
:103170000B95A02009A9C00502F080F81548164B50
:103180000360052343608560C5607B330361803342
:1031900043618023DB0083612023C361056201F06A
:1031A00069FE00280ED10B4B23659C62002203218F
:1031B0000C2001F0CFFD0C2001F0FCFDB7E700F082
:1031C00023FDBEE700F020FDEDE7C04600240140EE
:1031D00000100240D00800205800024010B586B010
:1031E00007F0E4F906F03AFFC82008F011FE5D4B45
:1031F0001868102107F0AFFD06E0002A01D0830710
:103200004CD4C30600D588E0564B1868642300935D
:10321000002300221E2107F009FD0C231A000240A2
:103220000342EAD08307E8D4C82008F0F1FDEBE7B9
:1032300006F0CEFEA30002AAD0500134022CF7DD26
:10324000052102A806F0D9F9474B1860474B984270
:1032500003DD474B1B78002B22D096235B0098425E
:1032600003DC434B1B78002B21D1414B1B78012BF6
:103270002DD0022B38D03C4B1B683E4A12689B1A5B
:103280003FD43D4A1360002B3DDD3C4A12683C4967
:1032900051188B4238DD3B4BD31835E00024CDE785
:1032A000394804F0F9FC324B01221A70DDE7364848
:1032B00004F02AFDC021C901A72007F053F901211C
:1032C000A02007F04FF92A4B00221A70CDE7264BB9
:1032D0001968284B1868294B1B68C01807F0C2F9F9
:1032E0000A2008F095FDC6E7C021C901A72007F014
:1032F00039F90221A02007F035F90A2008F088FDED
:10330000B9E70023BDE700231B490B601F4B18687A
:103310000023002208F0ABF876E7002201211C48C8
:1033200002F06FF880214902A72007F01BF9022163
:10333000A02007F017F905AC2100042007F0DEF803
:10334000E3789B0700D55FE701220121104802F0D6
:1033500058F8044B1868102107F0DFFC0A4804F005
:10336000D3FC51E72C090020340900201FA10700DD
:1033700044090020AC0F0020380900200C04002074
:103380004831000049310000A80D00203C09002010
:10339000000C005000B583B00AE003230340032B68
:1033A0001CD00A2318400A2818D0142008F030FD39
:1033B0000E4B186864230093002300220B2107F0B2
:1033C00035FC09230342E8D08307E6D4084B18688C
:1033D00007F068F8142008F01BFDE6E7044B1868B6
:1033E00007F060F8C82008F013FDDEE72C09002084
:1033F0004C09002010B582B016E0194806F068F9B3
:103400001EE0184806F0E0F91EE0174806F060F9E3
:10341000A3071BD5154806F0D7F917E0144806F0A6
:1034200065FA142008F0F4FC124B1868642300932A
:10343000002300220F2107F0F9FB0400C307DCD4AE
:1034400006232340062BDCD02307DED40A4B186862
:103450000122074908F0F5F80028DFD1E1E7C0466E
:103460000203000002070000030C0000040C00002F
:10347000600900202C0900205C09002030B583B0D1
:1034800006F04EFB06F02CFC06F058F807F042F967
:1034900007F0AAF9204B1868642300930023002248
:1034A000202107F0C3FB04001C4806F00DFB06F0CA
:1034B00051FB1B4806F092FB20231D0025402342B0
:1034C00013D1002DE6D11749042007F06BF96420D1
:1034D00008F09EFC144B1978114BD88806F09EF921
:1034E000124B186807F0B5FAD4E7104B18680A2198
:1034F00007F094FA642008F08BFC074C0821206840
:1035000007F00BFC0421206807F007FC206801216C
:1035100007F003FCD5E7C0462C090020780F0020F7
:10352000940F00201F1F1F00910F0020580900203A
:1035300070B51D4C2068FFF797FC1C4A1C4BFFF729
:103540009BF809F0EBF900221A4BFDF7EBFE002285
:10355000194BFEF725FE0022184BFEF721FE002234
:10356000174BFDF7DFFEFCF7D5FFC1B2042007F0D3
:1035700019F914492068FCF7EBFF2060FFF774FC91
:1035800004000D00094A104BFCF768FF002809D021
:10359000064A0D4B20002900FFF76EF8FFF7ACFC40
:1035A000014B186070BDC04654090020182D4454CA
:1035B000FB21F93F0000F03F0000E03F00C0674002
:1035C00000002440DB0FC93CFB21194010B51F4B04
:1035D000002201211E4807F0CBF91E4B18601E4A3D
:1035E0001621052007F082FA1C4B18601C4A0421A2
:1035F0000A2007F07BFA1B4B18601B4A04210A20A3
:1036000007F074FA194B1860194A0021194807F09D
:1036100045F9194B1860194A0021194807F03EF97D
:10362000184B1860184A0021184807F037F9184B52
:103630001860184A0021184807F030F9174B186035
:10364000174807F02BFA174B186010BD0CDF000865
:1036500031350008580900201CDF00085C090020F3
:10366000D0DE00084C09002070DE00083C09002074
:10367000ACDE0008DD3100084809002088DE0008C3
:103680009533000840090020E8DE0008F533000803
:10369000500900204CDE00087D340008300900206D
:1036A0003CDE00082C09002000B583B0114A916B64
:1036B000012319439163926B13400193019B0022F4
:1036C0000321092001F046FB092001F073FB0022D1
:1036D00003210A2001F03EFB0A2001F06BFB0022CF
:1036E00000210B2001F036FB0B2001F063FB03B03F
:1036F00000BDC04600100240F0B5DE4657464E46BB
:103700004546E0B58BB01422002105A809F030F839
:10371000794B5A6B04218A460A435A635A6B0A4012
:103720000092009A596B202211435963596B0A4049
:103730000192019A5A6B01252A435A635A6B2A4017
:103740000292029A5A6B022188460A435A635A6BC4
:103750000A400392039A596B0822114359635B6B29
:103760001A400492049B8021644B9B4600228901ED
:10377000180001F046FEA027FF050022604938002E
:1037800001F03FFE5F4E0022A0210902300001F04F
:1037900038FE0122C021584601F033FE802101226B
:1037A0000902380001F02DFE574B994601220921EC
:1037B000180001F026FE83239B0105930695002443
:1037C0000794089405A9584601F058FD4F4B0593FE
:1037D00006950794089405A9380001F04FFD1023C1
:1037E000059306944346079305A9380001F046FD6A
:1037F00005954346069307940894099505A930005A
:1038000001F03CFD5346059384239B0306930794E4
:1038100005A9300001F032FDA0231B020593069597
:103820000794089405A9300001F028FD8023DB01EE
:1038300005930694079405A9300001F01FFD80232D
:103840005B0005930694079405A9380001F016FD66
:103850008023DB000593112306930794089405A9A0
:10386000380001F00BFD0923059306950794089491
:1038700005A9484601F002FD4346059388256D03DE
:103880000695079405A9484601F0F8FC53460593B0
:103890000694079405A9484601F0F0FC30230593EF
:1038A0000695079405A9300001F0E8FC184A116854
:1038B00080231B040B43136000220321052001F029
:1038C00049FA052001F076FA00220321062001F0D2
:1038D00041FA062001F06EFA00220321072001F0D0
:1038E00039FA072001F066FA0BB0F0BCBB46B246CD
:1038F000A946A046F0BDC046001002400008005096
:103900000206000000040050000C0050028200007B
:103910000000014010B51448144B0360144B436081
:10392000002383600122C260036143618361C3613C
:10393000036201F029FE00280CD100210A4802F0A0
:1039400011FE002809D10021074802F037FE0028A7
:1039500006D110BD00F058F9EFE700F055F9F2E795
:1039600000F052F9F5E7C046E80A00200054004094
:10397000BC7D701010B51448144B0360144B4360A9
:10398000002383600122C260036143618361C361DC
:10399000036201F0F9FD00280CD100210A4802F071
:1039A000E1FD002809D10021074802F007FE0028A8
:1039B00006D110BD00F028F9EFE700F025F9F2E795
:1039C00000F022F9F5E7C0463C0B0020005800400B
:1039D000BC7D701070B590B00400142200210BA8BB
:1039E00008F0C6FE1C22002104A808F0C1FE2368CE
:1039F000604A934204D0604A934264D010B070BDD4
:103A00002023049304A803F0D3F9002852D15B4E7D
:103A1000726B02231A437263726B13400093009B14
:103A2000C0239B000B9312230C9300250D950E953C
:103A30000C3B0F930BA9524801F020FCF26B802144
:103A400089030A43F263F36B0B400193019B4D48DA
:103A50004D4B03600A2343608560C5607633036184
:103A600045618561C561056201F004FA002824D131
:103A7000444BE3639C624548454B03600B23436022
:103A8000053383600023C360802202614361836148
:103A9000C361036201F0EEF9002811D13B4BA3632F
:103AA0009C6200220321172001F054F9172001F035
:103AB00081F9A3E700F0A8F8A9E700F0A5F8D7E797
:103AC00000F0A2F8EAE72D4D6A6B02231A436A63FD
:103AD0006A6B13400293029BC0231B010B931223BA
:103AE0000C930C3B0F930BA9254801F0C7FBEA6B25
:103AF0008021C9030A43EA63EB6B0B400393039BEA
:103B00002448254B03600C23436000238360C3607B
:103B10008022026143618361C361036201F0AAF9FB
:103B2000002821D11B4BE3639C621C481C4B0360A3
:103B30000D234360033383600023C360802202614E
:103B400043618361C361036201F094F900280ED1DF
:103B5000124BA3639C6200220321182001F0FAF8A3
:103B6000182001F027F949E700F04EF8DAE700F0F5
:103B70004BF8EDE7005400400058004000100240B0
:103B8000000400507809002008000240D4090020F9
:103B90001C000240300A0020300002408C0A002045
:103BA0004400024010B50400134B02689A4203D04F
:103BB000124B9C4203D010BD00F088FDF8E7104A7C
:103BC00013780133DBB213700A2B0CD03C2BF2D1EB
:103BD0000C4B1B78012BEED10A4B02221A70084BBA
:103BE00000221A70E7E7074A1278022AEED1054A46
:103BF00001211170EAE7C04600100040A80D002026
:103C0000900B00204409002072B6FEE700B593B087
:103C10003422002105A808F0ABFD1022002101A8E4
:103C200008F0A6FD8020800002F0F2FC012305933D
:103C300080235B02069302230C9301330D93002330
:103C40000E9308330F9380239B02109380239B05D0
:103C5000119305A802F006FD00280ED10723019359
:103C6000053B0293002303930493022101A802F071
:103C7000A5FF002803D113B000BDFFF7C5FFFFF774
:103C8000C3FF10B500F00EFDFFF7C0FFFFF734FDD6
:103C9000FFF70AFDFFF7D6F9FFF73CFEFFF76AFED4
:103CA00000F012F800F02AFC00F098FB00F0D0FBC6
:103CB00000F078FA00F0A6FA06F0BCFDFFF786FCEB
:103CC00006F0CCFDFEE7000010B51248124B036071
:103CD00082235B00436000238360E022D200C26045
:103CE00002220261013A4261802292008261E93A35
:103CF000FF3AC261036243628362113AC2620363A4
:103D0000436303F097FA002800D110BDFFF77CFF52
:103D1000FBE7C046940B00200030014010B588B08E
:103D200004001422002103A808F022FD22681E4B83
:103D30009A4201D008B010BD1C4B196C8020400184
:103D4000014319641A6C02400092009A596B0122D7
:103D500011435963596B0A400192019A5A6B02242C
:103D600022435A635B6B23400293029BC0235B0197
:103D700003930494A02003A9C00501F07FFA08234F
:103D800003930494002305930693079303A908481B
:103D900001F074FA00220321192000F0DBFF192042
:103DA00001F008F8C6E7C0460030014000100240AC
:103DB0000004005000B583B0164B196C012211436A
:103DC0001964196C0A400092009ADA6B8021490547
:103DD0000A43DA63DB6B0B400193019B0220002254
:103DE0000321404200F0B6FF00220321032000F02F
:103DF000B1FF032000F0DEFF00220321042000F0C9
:103E0000A9FF042000F0D6FFC020C00000F070FC25
:103E100003B000BD0010024030B587B005001F4A56
:103E2000D16B10231943D163D26B13400093009BD5
:103E300001A902A802F0A2FF059B002B16D102F0F7
:103E400089FF1749FCF760F9431E1648164A0260BD
:103E5000164AC2604360002303618360836104F0FB
:103E600003F9041E06D0200007B030BD02F072FF37
:103E70004000E6E70B4803F00FFF041EF3D11120CA
:103E800000F098FF032D01D90124ECE7002229005E
:103E9000112000F05FFF064B1D60E4E700100240B8
:103EA00040420F00F80B002000100040E703000024
:103EB00008040020FEE7FEE710B501F06DF910BD23
:103EC000704710B5022001F0ABFA10BD10B5042008
:103ED00001F0A6FA10BD10B5102001F0A1FA2020C3
:103EE00001F09EFA10BD000010B5024801F0E8F89C
:103EF00010BDC0467809002010B5034801F0E0F875
:103F0000024801F0DDF810BDD4090020300A00207D
:103F100010B5064801F0D4F8054801F0D1F805487D
:103F200001F0CEF8044801F0CBF810BD8C0A002057
:103F3000D0080020F40D0020680C002010B50248C5
:103F400000F008FD10BDC0466C08002010B5024806
:103F500003F054FF10BDC046F80B002010B5024816
:103F600003F04CFF10BDC046A80D002010B502485C
:103F700003F044FF10BDC046C40C002010B5074B31
:103F80001B689A69E023DB001A4203D0034802F061
:103F9000ABFA10BD014801F0B5FCFAE7E80A0020D1
:103FA00010B5074B1B689A69E023DB001A4203D067
:103FB000034802F099FA10BD014801F0A3FCFAE7AA
:103FC0003C0B002010B5024803F090FC10BDC04629
:103FD000940B002010B51C4B1B68DA69920611D5B2
:103FE0005A6AD2B2194909785A2912D017490A7067
:103FF00017490968002905D0164801784C1C04703F
:1040000015484254DA69D2060ED40F4804F0A8FDD0
:1040100010BDA52AEAD159390D4801600E485A242D
:1040200004700C480170E1E710221A620A49094B3A
:104030001B788B82094B18680023002207F017FABF
:10404000034B00221A60E0E7500E0020480C0020CD
:10405000440C0020490C00204C0C00205C0900207E
:1040600070B507F0D1FD0500474B186806F06AFEF1
:1040700004000421454801F0BDF9002813D1444B48
:104080001B68EB1A632B0ED9414B1D6002231D00E8
:104090002540234202D10B33234205D1002D02D00B
:1040A0000D23234239D170BD374B1868022106F029
:1040B00052FE630718D4E30728D42307EED535480A
:1040C00006F07AF900220121334801F09AF98021A3
:1040D0000902A72006F046FA0121A02006F042FAC4
:1040E0000C2005F0CBFCD9E7072005F0C7FC002227
:1040F0000121294801F085F980210902A72006F055
:1041000031FA0121A02006F02DFAD4E7032005F0B2
:10411000B5FC204806F050F9CFE71B4B1868022188
:1041200006F0FBFDE30714D463071FD42307BAD5B9
:104130000C2005F0B5FB144C0821206806F0EDFDBD
:104140000021164804F082F92068102106F003FED1
:10415000A9E7032005F0A4FB0B4B1868012106F02A
:10416000DCFD00210D4804F071F9DDE7072005F0C2
:1041700097FB054D0421286806F0CFFD2868102123
:1041800006F0E9FDD2E7C0462C09002000040050EB
:10419000640C002000002642000C0050C40C0020DB
:1041A0007047000000B585B00C22002101A808F07E
:1041B000DFFA1048104B0360104B4360002383600C
:1041C0000F4BC3608023836103F04EFF00280AD1A8
:1041D00000230193039301A9064804F0F7FA00288D
:1041E00004D105B000BDFFF70FFDF1E7FFF70CFDAF
:1041F000F7E7C046A80D0020001400407F02000031
:104200008713000010B50948094B03600023436081
:104210008360084AC26003614361836103F024FF45
:10422000002800D110BDFFF7EFFCFBE75C0D00207C
:1042300000480140FFFF000010B58AB004001422BE
:10424000002105A808F094FA23683D4A93420AD059
:104250003C4A934219D03C4A934229D03B4A93426C
:1042600050D00AB010BD3A4AD16B20231943D16314
:10427000D26B13400093009B00220321122000F018
:1042800069FD122000F096FDEBE7314A116C8020A9
:10429000000201431164136C03400193019B00224F
:1042A0000321132000F056FD132000F083FDD8E712
:1042B000274A116C8020800201431164136C034073
:1042C0000293029B2348244B03602C2343601C3B36
:1042D00083600023C36080330361803343618023A4
:1042E000DB0083612023C36180235B01036200F054
:1042F000C1FD002803D1174B63629C62B1E7FFF751
:1043000083FCF8E7124B196C8020C002014319644A
:104310001A6C02400392039A596B012211435963AC
:104320005B6B1A400492049B802305937E3B0693AB
:1043300003330993A02005A9C00500F09FFF90E773
:1043400000140040002000400044014000480140AB
:1043500000100240680C00208000024010B588B0B8
:1043600004001422002103A808F002FA2368174A67
:10437000934204D0164A934211D008B010BD154A9A
:10438000516B022319435163526B1A400192019AF7
:104390000393049303A9104800F070FFEDE70D4A62
:1043A000516B012319435163526B13400293029BDB
:1043B000402303933E3B0493013306930233079358
:1043C000A02003A9C00500F059FFD6E70020004057
:1043D00000440140001002400004005000B589B0C4
:1043E0001C22002101A808F0C3F91748174B0360ED
:1043F0003F23436000238360FF22C2600361836127
:1044000003F032FE002816D10F4803F05DFE0028AD
:1044100014D1602301930023029303930593002298
:1044200001A9094803F0C4FE00280AD10648FFF795
:1044300095FF09B000BDFFF7E7FBE5E7FFF7E4FBF9
:10444000E7E7FFF7E1FBF1E7C40C002000200040A4
:1044500000B595B01C2200210DA808F089F934227E
:104460000021684608F084F92248234B03600023AA
:1044700043608360A022C26003614361836103F0F3
:10448000F3FD00282AD11B4803F01EFE002828D186
:1044900060230D9300230E930F93109311931293A7
:1044A000139300220DA9134803F082FE00281BD1AC
:1044B00000230093019302930393049380229201BB
:1044C000059206930C9369460A4804F0BBF900284C
:1044D0000DD10848FFF742FF15B000BDFFF794FB70
:1044E000D1E7FFF791FBD3E7FFF78EFBE0E7FFF79C
:1044F0008BFBEEE7100D00200044014010B51F4873
:104500001F4B0360E1235B02436000238360C360B1
:1045100003610C2242618361C3610362436283626F
:1045200004F03AFF00281CD10021144804F0B8FF21
:10453000002819D10021114804F0D8FF002816D115
:104540000E4804F08DFF002814D10C4A11680B6846
:10455000102003430B601268136820210B43136083
:1045600010BDFFF751FBDFE7FFF74EFBE2E7FFF778
:104570004BFBE5E7FFF748FBE7E7C046500E00209E
:104580000038014030B58FB004001422002109A882
:1045900008F0EEF81C22002102A808F0E9F8274BE9
:1045A00022689A4201D00FB030BD0123029302A8C5
:1045B00002F0FEFB00283AD1214B196C8020C0018B
:1045C000014319641A6C02400092009A596B02224E
:1045D000114359635B6B13400193019BC023099303
:1045E0000A9200250B950C950D9509A9154800F028
:1045F00045FE1548154B036033234360233B83601E
:10460000C5607033036145618561C561056200F075
:1046100031FC00280ED10C4BE3679C620022032181
:104620001B2000F097FB1B2000F0C4FBBBE7FFF74B
:10463000EBFAC1E7FFF7E8FAEDE7C04600380140C2
:104640000010024000040050F40D00206C000240F5
:104650000D488546FFF7A4FD0C480D490D4A00237F
:1046600002E0D458C4500433C4188C42F9D30A4A27
:104670000A4C002301E013600432A242FBD308F08D
:1046800003F8FFF7FEFAFEE700900020000000208C
:104690004C08002084E2000850080020D04100208F
:1046A000FEE7000010B5084A116880235B000B4349
:1046B00013600320FFF7B0FB041E02D0012420008A
:1046C00010BDFFF777FBFAE700200240034B1B7891
:1046D000034A11685B1813607047C0460404002049
:1046E000E40E0020014B18687047C046E40E00201D
:1046F000034A136803490B40034313607047C046E5
:1047000000000140FFF9FFFF30B583B00400002333
:104710000193002800D106E1836D002B13D023689C
:104720009A68D2001CD49A688049114080225205B0
:104730000A439A607E4B18687E49FBF7E5FC01301E
:104740004000019009E0FEF7E1FC0023E3655422FC
:10475000A354E4E7019B013B0193019B002BF9D19A
:1047600023689A68D20000D59DE0A26D10210A430B
:10477000A265E26D0F390A43E26501209A680421BF
:104780000D001540114200D00125A26DD20600D5C2
:10479000C2E0002D00D0BFE0A26D67490A4006319B
:1047A000FF310A43A2659A68D20752D4227E92034F
:1047B000A1680A43617EC9030A43A57E69030A43CF
:1047C000216B002901D0802149010A43E1680A4395
:1047D0002169002969DB802189030A432C21615C5E
:1047E00049000A432021615C012961D0616A0029E6
:1047F00005D0E0256D002940A56A29430A43D96800
:104800004E4D29400A43DA6063689B0F9B07E26CB8
:104810001A433C21615C012959D021680B69484D3C
:104820002B4013430B616368C0221206934210D0E1
:104830008022D20593420CD080221206934208D0E7
:1048400040490A68404D2A40F025AD032B401343F0
:104850000B602268536907218B43616B0B435361E3
:1048600021684B6970229343A26B120113434B6181
:104870002369002B35D12268916A103B0B43936268
:1048800023685A6907231340626B9A423BD0A36D99
:1048900012229343023A1343A365E36D0F3A134385
:1048A000E36501203DE0002068E74900490894E7FE
:1048B000002D03D1802149020A4397E7A16D2025ED
:1048C0002943A165E16D1F3D2943E1658EE7216C18
:1048D0000B43616C0B43A16C0B43134301221A433E
:1048E0009BE7802292039342CAD121688B6AE369D5
:1048F000013B9B001C221A4010235B429340226E16
:1049000013438B62BCE70023E365A36D032293434B
:10491000023A1343A36504E0A36D10221343A36579
:10492000012003B030BD0120FBE7C046E8FFFF6F68
:1049300000040020400D0300FDFEFFFF0102FEFF0A
:1049400002FCFF1F08270140FFFFC3FF70477047AD
:104950007047000070B5040003681E685D68B30707
:104960000FD5AB070DD5836DDB0604D4826D802394
:104970001B0113438365200000F0EAF9236802223B
:104980001A60730701D56B0703D4330729D52B07AA
:1049900027D5A36DDB0604D4A26D80239B001343AF
:1049A000A3652368D968C0221201114213D1A27EE7
:1049B000002A10D11A6812070DD59A6852073BD405
:1049C0005A680C218A435A60A36D374A1340043257
:1049D000FF321343A3652000FFF7B8FF23680C22C2
:1049E0001A60330601D52B062FD4F30501D5EB054C
:1049F00037D4B30501D5AB0540D4F30617D5EB0684
:104A000015D5236B002B03D02368DB689B070BD0E5
:104A1000A26D8023DB001343A365E36D02221343E1
:104A2000E3652000FFF794FF236810221A60B304A7
:104A300001D5AB042FD470BDA36D20221343A36511
:104A4000E36D1F3A1343E365C5E7A26D80235B0264
:104A50001343A3652000FFF77AFF236880221A60C2
:104A6000C3E7A26D80239B021343A365200000F0DF
:104A70006DF92368802252001A60BAE7A26D802384
:104A8000DB021343A365200000F061F92368802254
:104A900092001A60B1E7200000F05BF923688022E1
:104AA00092011A60C7E7C046FEFEFFFFF0B583B073
:104AB00004000023019305695433C35C012B00D12A
:104AC00030E154230122C254006883680332160087
:104AD0001E401A4209D0A36D1C321343A365012066
:104AE00054230022E25403B0F0BD4B68022B00D1E6
:104AF000D6E080221206954226D08B4A954223D0DA
:104B00001F221340103A9A40256E95432A000D68E3
:104B10006F032FD1AD0E1F262E409E4016432666F2
:104B20004D68AB080133E269934213D8826A1F23B0
:104B30001D40103B1E00AE40B2430E68B60E33401F
:104B4000AB401343836205E0826A0B685B035B0B37
:104B500013438362206842690B681B029A438D6885
:104B60002B40724D2B40134343610B68002B4FDBEE
:104B70000020B5E7EF07D0D4AE0727D46E0727D4BF
:104B80002E0727D4EE0627D4AE0627D46E0627D4E8
:104B90002E0627D4EE0527D4AE0527D46E0527D4DC
:104BA0002E0527D4EE0427D4AE0427D46E0427D4D0
:104BB0002E0427D4EE0327D4AE0327D48027FF0288
:104BC0002E003E403D42A8D01226A6E70126A4E7CB
:104BD0000226A2E70326A0E704269EE705269CE717
:104BE00006269AE7072698E7082696E7092694E717
:104BF0000A2692E70B2690E70C268EE70D268CE717
:104C00000E268AE70F2688E7102686E7112684E716
:104C1000474A1168E02252040A404648834207D0BE
:104C20004548834222D0454883422CD0002057E794
:104C30000802F5D480231B041A433D490B68404801
:104C400003401A430A603F4B18683F49FBF75CFA80
:104C5000013043001B189B00019302E0019B013BC4
:104C60000193019B002BF9D1002039E7C801DAD468
:104C700080235B041A432E490B68314803401A43D2
:104C80000A6000202CE74B024AD48023DB031A433E
:104C900027490B682A4803401A430A6000201FE78F
:104CA00080231B069D4202D01F4B9D4205D1826A84
:104CB0000B685B035B0B9A4382620B68002B01DB82
:104CC00000200DE71A4A12681A498B4207D01A4988
:104CD0008B420FD019498B4217D0002000E7A02348
:104CE0005B041A4012490B68154803401A430A60D6
:104CF0000020F5E6C0231B041A400D490B6810483C
:104D000003401A430A600020EAE6C0235B041A400D
:104D100007490B680A4803401A430A600020DFE68F
:104D20000020DDE60220DEE60400008000FFFF0731
:104D300008270140001000B0004000B8002000B477
:104D4000FFFF3FFE00040020400D03007047704746
:104D50007047704770B5002811DB8308134EC033CD
:104D60009B009D5903242040C000FF221400844072
:104D7000A54389010A4082402A439A5170BD0F23FE
:104D80000340083B9B0806339B00094A9446634452
:104D90005C6803221040C000FC3215008540AC4323
:104DA00089010A40824022435A60E7E700E100E0BF
:104DB00000ED00E0002805DB1F2318401E3B834068
:104DC000014A13607047C04600E100E0F0B5846C12
:104DD000C56C6560046D002C02D0446D856D656006
:104DE0000B4F7C681C26056C2E400125B5402C43DA
:104DF0007C60046863608368102B04D0036899604A
:104E00000368DA60F0BD03689A600368D960F9E767
:104E10000000024010B50400036C9B08094A944648
:104E200063449B004364FF20236818400838142122
:104E3000FBF76AF9044BA3641F2318401E3B834011
:104E4000E36410BD00820010800802403F234268E6
:104E50001340064A9A1892000265054A4265013BD2
:104E600003221A4001239340836570473F8200105C
:104E70004009024070B5041E4DD00568274BE81864
:104E80001421FBF741F98000206425230222E2541B
:104E90002B68234A13402B6021680A68A368E068E6
:104EA00003432069034360690343A0690343E06946
:104EB0000343206A034313430B602000FFF7AAFF5C
:104EC0008023DB01A2689A4218D0626C3F2361689C
:104ED0000B401360A36CE26C5A606368013B032BC8
:104EE0000FD9002323656365A3650023E3632522AF
:104EF0000121A154013AA354002070BD0023636036
:104F0000E3E72000FFF7A2FF236D00221A60636D24
:104F1000A26D5A60E9E70120EFE7C046F8FFFDBF48
:104F20000F80FFFF70B504002420205C012845D0CD
:104F30002420012525540130205C012806D080233F
:104F4000E3635C3B0022E254012070BD2430013554
:104F500025540020E063256828680126B0432860B6
:104F60002000FFF733FF236B002B1CD0226813684F
:104F70000E210B431360636C1A68D20304D51968C1
:104F8000802252000A431A60236D002B04D0196856
:104F9000802252000A431A602268136801210B43E1
:104FA00013600020D1E72268136804218B4313604B
:104FB0002268136806310B431360DCE70220C4E764
:104FC00030B5002836D02523C35C022B06D004233D
:104FD000C36320330022C254012030BD026813682D
:104FE0000E218B431360426C136813490B4013600E
:104FF00001680A6801239A430A60104C62681C2108
:10500000056C29408B4013436360836CC26C5A600B
:10501000036D002B06D01A6807490A401A60436DD9
:10502000826D5A6025230122C254013B0022C254E2
:105030000020D2E70120D0E7FFFEFFFF0000024082
:1050400070B52523C35C022B03D00423C363012066
:1050500070BD026813680E218B43136001680A68F3
:1050600001239A430A60416C0A68134C22400A608B
:10507000124C62681C21056C29408B40134363600D
:10508000836CC26C5A60036D002B06D01A680A4903
:105090000A401A60436D826D5A6025230122C25472
:1050A000013B0022C254836B002B02D098470020A2
:1050B000CEE70020CCE7C046FFFEFFFF0000024025
:1050C00070B5314B1968046825681C23026C1340C5
:1050D00004229A40114216D06A0714D523689B0611
:1050E00003D42368042293432360274C63681C2164
:1050F000026C114004228A4013436360036B002B4F
:1051000000D0984770BD02229A4011421CD0AA07D5
:105110001AD523689B0606D423680A22934323608A
:105120002523093AC254184C63681C21026C1140B3
:1051300002228A401343636024230022C254C36ABC
:10514000002BDFD09847DDE708229A401142D9D0E2
:105150002B07D7D523680E22934323600A4C62683D
:105160001C21036C194001231D008D402A436260FD
:10517000C3632522835423330022C254436B002B84
:10518000C0D09847BEE7C046000002402523C05C5F
:10519000C0B270477047704710B52B4B1B692B4A44
:1051A00013402B4A9268510721D5294A1469002BD4
:1051B0002AD1254B1B69DB070CD5234B01221A6131
:1051C000234B9B68022B2CD0214B00229A6020009D
:1051D000FFF7E0FF1E4B9B68002B07D11A4A53696B
:1051E0001C490B4053611A4B00221A7010BD16481F
:1051F00041699143416118490A4202D0144AD46876
:10520000D5E7134A5469D2E7114A51680B435360FA
:105210000D4B0E491961002393602000FFF7BBFF7F
:10522000C7E70B4A9369013B9361002B03D1084BFD
:1052300000229A60CBE713005269511C596118692A
:1052400000F00CF8C3E7C04600200240FA830000DB
:10525000E80E0020FFFFFFFC01000400044A536930
:1052600004480340C9001943034B19435161704777
:105270000020024007E0FFFF02000100F0B500231C
:105280005AE084685F000326BE40B4432600CC6821
:10529000BC4034438460446894434A681609012240
:1052A00032409A402243426056E0DC080834A400B1
:1052B000265805321A4092000F279740BE430F69C7
:1052C00097403A00324322505AE0032600E000267D
:1052D000A64034003C43434E183292009451346847
:1052E000EA432600AE434F68FF0201D52C43260057
:1052F0003C4C26606468260016404F68BF0201D50A
:105300002C432600374C66608426A459260016409C
:105310004F68BF0301D52C432600324C8427E65149
:105320008026A45922404E68F60301D52A00224364
:105330002C4D80242A5101330C682200DA404FD0D2
:1053400001229A40250015401442F4D003244E68EF
:105350003440013C012C94D903224C682240032A9A
:1053600009D0C2685E000324B440A24314008A68D6
:10537000B2402243C26003224C682240022A94D0E9
:1053800004685E0003221700B740BC434F683A40F0
:10539000B24022430260C02292024C681442CAD03A
:1053A0009A0814001834A4000E4EA75903241C4078
:1053B000E4000F26A640B743A026F605B04286D0EB
:1053C000094EB04208D0094EB04207D0084EB04254
:1053D00000D17AE705267BE7012679E7022677E701
:1053E000F0BDC04600180240000400500008005004
:1053F000000C005003690B4201D0012070470020CF
:10540000FCE7002A01D0816170478162FCE74269B4
:1054100013000B401B04914319438161704770478F
:1054200010B50400094BDB68184204D1074B1B6917
:10543000234205D110BD054BD860FFF7F0FFF5E71B
:10544000024B1C612000FEF70BFEF3E70018024040
:1054500003689A69920701D500229A6203689A69E3
:10546000D20703D49A6901210A439A617047000068
:1054700010B58905890D120411431943029B194384
:1054800049004908046862685B0D8020C000034041
:10549000024803439A431143616010BDFF63FF0359
:1054A000436B1C4A934215D01B4A934212D00BB255
:1054B000002B29DB0023CA0701D5F22213438A07F8
:1054C00001D5F4221343102920D020290CD1202209
:1054D000134309E00BB2002B0BDB002310290AD089
:1054E00020290BD040290CD001680A6813430B60B7
:1054F0007047B823F2E790221343F1E76022134389
:10550000F0E740221343EFE7B823D4E79022134398
:10551000DBE7C046416100081560000830B5CB07E5
:1055200009D54123C35C28221340282B01D0F22344
:1055300002E01A3300E000238A0709D544241C4303
:105540004122825C28252A40282A0FD0F4221343C6
:105550000AB2002A0CDB10290DD020290ED04029D8
:105560000FD001680A689A430A6030BD2300EFE754
:10557000B8221343EFE790221343EEE720221343B0
:10558000EDE740221343ECE710B5041E59D0412348
:10559000C35C002B43D041232422E25422681368C9
:1055A00001218B4313602268274B61680B40136114
:1055B0002268936825490B409360E368012B34D03F
:1055C000226884231B02A1680B439360E368022BCB
:1055D00032D0226851681E4B0B4353602268D36857
:1055E0001A490B40D360236962691343A26912020E
:1055F00021681343CB602268E369216A0B4313607F
:105600002268136801210B43136000236364412265
:105610001F31A15423630132A354002010BD403335
:105620000022C254FEF7D6F9B5E7226880231B0298
:10563000A1680B439360C9E72368802212015A6076
:10564000C7E70120EAE7C046FFFFFFF0FF7FFFFF4B
:1056500000800002F0B5D6464F464646C0B582B03F
:1056600004000E001D000AA802C800884123E35C64
:10567000202B00D084E0002954D0002852D0236889
:1056800099469B691B0400D582E04023E35C012B13
:1056900000D17FE040239A463F3B5746E3554033D5
:1056A0009C46203B984663464746E754013357469D
:1056B000E7540023636461626085374BE362374BD4
:1056C0006363E664638D9BB2FF2B30D9FF23238590
:1056D000012D2FD0130A48468362D2B22265A36BF4
:1056E000002B2ED02E4ADA62A36B2E4A5A63A26B8D
:1056F00000231363A26B936322682832238DA06B6F
:10570000FFF710FC071E2AD041232022E25400227A
:105710000133E254636C10210B4363644023E25471
:1057200001272EE080239B006364012729E0638D1D
:105730002385CDE7D2B24B469A6201235B422365B3
:10574000CDE741232022E25400220133E254636C6E
:1057500080210B4363644023E254012711E080233E
:10576000EAB2114900915B0431002000FFF780FE8E
:1057700040230022E25401212000FFF791FE00E0C7
:105780000227380002B0E0BCBA46B146A846F0BDD8
:105790000227F6E70227F4E70000FFFF5D63000839
:1057A000956200087D62000800200080F0B5D646B2
:1057B0004F464646C0B582B004000E0011001D00E1
:1057C0000AA804C800884123E35C202B00D083E0B2
:1057D000002A54D0002852D0236899469B691B04A4
:1057E00000D581E04023E35C012B00D17EE0402323
:1057F0009A463F3B5746E35540339C461F3B9846ED
:1058000063464746E75401335746E7540023636431
:1058100062626085364BE362364B6363E664638D98
:105820009BB2FF2B30D9FF232385012D2FD00B0AEC
:1058300048468362C9B22165E36B002B2ED02E4906
:10584000D962E36B2D495963E16B00230B63E16B74
:105850008B6321682431238DE06BFFF763FB071E08
:105860002AD041232022E25400220133E254636C07
:1058700010210B4363644023E25401272DE0802371
:105880009B006364012728E0638D2385CDE7C9B2BF
:105890004B46996201235B422365CDE741232022D9
:1058A000E25400220133E254636C80210B436364B1
:1058B0004023E254012710E0EAB2114B0093002389
:1058C00031002000FFF7D4FD40230022E2540121E3
:1058D0002000FFF7E5FD00E00227380002B0E0BC41
:1058E000BA46B146A846F0BD0227F6E70227F4E71C
:1058F0000000FFFF5D630008F96200087D62000898
:105900000020008010B5036899691A68436B002B6A
:1059100000D0984710BD7047704770B5040042230F
:105920000022C254013BC35C212B0FD04123202213
:10593000C2542F3B0363002545630221FFF7EEFDB0
:105940004023E5542000FFF7E7FF70BD20332032ED
:10595000C254303B0363002545630121FFF7DEFDA0
:105960004023E5542000FFF7D6FFEEE7704770476D
:1059700010B5040003681A684221002060545104E5
:105980000CD51A6819490A401A604123E35C292B97
:105990000BD04123E35C2A2B17D010BD1204F4D5A1
:1059A0001A6813490A401A60EFE718332822E254B4
:1059B000203B236301212000FFF7B0FD402300229C
:1059C000E2542000FFF7D2FFE7E717332822E25422
:1059D0001F3B236302212000FFF7A0FD402300228C
:1059E000E2542000FFF7C3FFD7E7C046FFBFFFFF29
:1059F000FF7FFFFF7047F8B504004123C35C2822F6
:105A00001340282B06D003680822DA6140230022C5
:105A1000C254F8BD01688E69360C273B1E408D6963
:105A20002D0CFE273D408B689B059B0DCA681740D7
:105A3000C268022A24D1DA096A400620104211D134
:105A4000A26C0132A264A26C022AE2D10022A264FA
:105A50000230C861402162541A0031002000FFF773
:105A6000C9FFD6E7802109022000FFF757FD402338
:105A70000022E2543A0031002000FFF7BBFFC8E7E4
:105A800080210902FFF74AFD40230022E2542A0048
:105A900031002000FFF7AEFFBBE7704710B50400F0
:105AA000164BC3620023036341222020A05401321D
:105AB000A35463634B0713D523685B6A626A137050
:105AC000636A01336362238D002B09D0013B238578
:105AD000638D013B9BB26385636C04221343636453
